:10105900526561647920526164696F200A005365A1
:101069006E6420526164696F20537563636573739D
:10107900200A0053656E6420526164696F204661DD
:10108900696C200A00526164696F204461746120AF
:101099006465746563746564200A0053656E642031
:1010A900526164696F20726563656976652025649C
:0D10B900200A0044617461202573200A00A4
:1009F50041004500602100000000000000000000EB
:100A050000000000000000000000000000000000E1
:100A150000000000000000000041004400410047C4
:100A25000041006C004100480041006D0041004656
:100A35000041006E0041006F00410043004100424B
:060A450000420049000020
:1011DA00AB07AA06C2CAC2CFEB4A603C7C007D2F8D
:1011EA00120761AA06AB07EA1313543FFFC3EB9F2A
:1011FA00FBEA9400C313FFC3EB9FFBEBF4FBEB5436
:10120A000FF5CCAF03EF54F0FFE4C4F854F0C8EF85
:09121A00C4540F48F5CDD2CA22DC
:1013B7007804EFA2E713D8FB540F2430FED39439F7
:1013C70074809480400474072EFE90006EEEF0EF58
:1013D700540F2430FFD394397480948040047407E9
:0713E7002FFF90006FEFF0F3
:0113EE0022DC
:030023000210C602
:1010C600C0E0C0F0C083C082C0D075D000C000C0F0
:1010D60001C002C003C004C005C006C0073098277F
:1010E600C298900044E0C3941E748094805015E02A
:1010F6002400F582E43400F583E599F0900044E09D
:1011060004F080031214EAD007D006D005D004D02C
:1011160003D002D001D000D0D0D082D083D0F0D07E
:02112600E032B5
:100B710053B1F743B208D283C29453B3EF43B410D5
:100B8100D28153B1FD53B2FDD29053B3FE43B401B0
:100B9100D29253B3FB43B404D29153B3FD43B40295
:100BA10053ACFE43AD0153B37F43B4807F021213B4
:100BB100EFD28543B12053B2DF53B1DF43B220D22C
:100BC1008243B10453B2FB53B1FB43B204D2964307
:100BD100B34053B4BF53B3BF43B440D29443B310F3
:100BE10053B4EF53B3EF43B410209409209606E4B5
:100BF100900046F02220940A309607900046740136
:100C0100F02230940A2096079000467402F02230B8
:0C0C110094093096069000467403F0220F
:0817AA00759850D2ACD2AF22B9
:10002600E49000D2F0120B717F007EC27D017C004D
:10003600120F781217AA12184F7F011200039000B0
:1000460047EFF0601B7F4F1217BA7F4B1217BA7F2C
:10005600131217BA7F101217BA12184C7F0180209C
:100066007F461217BA7F611217BA7F691217BA7FD5
:100076006C1217BA7F131217BA7F101217BA7F02C3
:100086001213EF7F717E051211DA7BFF7A10795910
:1000960012040620840F9000487401F0E490006D6D
:1000A600F0C283800CE4900048F090006D04F0D21A
:1000B60083900044E0606D900048E07067FF121383
:1000C600EFE49000D0F0900044E0FF9000D0E0FD17
:1000D600C39F502074002DF582E43400F583E0FFC1
:1000E600744B2DF582E43400F583EFF09000D0E0F8
:1000F60004F080D2900047E0602A7B017A00794BB9
:10010600120E85EF60107F011213EF1214BD7BFFF4
:100116007A107967800B7F021213EF7BFF7A1079D2
:100126007C1204062080097BFF7A10798E12040661
:10013600900048E060069000D2E0600E7B017A00F5
:10014600794B120F029000D0EFF09000D0E0FFD371
:1001560094007480948040257BFF7A1079A49000E7
:10016600D7EFF01204069000D77401F0A37400F0E4
:10017600A3744BF07BFF7A1079BC1204069000D072
:10018600E0FF70030202A5900045E060030202A5AD
:0F019600900048E060099000D2E070030202A5DB
:1001A500E49000D3F0900045EFF090006DE06028FA
:1001B500900053E064527020A3E0B4731BA3E0B435
:1001C500731612175C1213B790006EE090005BF087
:1001D50090006FE090005CF09000D0E06028900007
:1001E500D3E0FF04F0744B2FF582E43400F583E08F
:1001F500FF9000D0E0FE14F074212EF582E4340067
:10020500F583EFF080D2900045E0FF14F074212FC4
:10021500F582E43400F583E0FF1217BA9000D2E0CE
:10022500603B90004BE0644F7033A3E0644B702D4E
:10023500900042E0FF90004EE0B50721900043E0BA
:10024500FF90004FE0B50715D297209704D2B080F4
:1002550002C2B07F031213EFE49000D2F090006D5C
:10026500E0603D90004EE064507035A3E06443705B
:100275002F90004BE090004EF090004CE090004F26
:10028500F090004B744FF0A3744BF0A37420F090E2
:100295000047E0600B7B017A00794B7D05120E85E6
:0F02A500900048E0700302009920CF03020099F7
:1002B400E49000D3F09000D2E06002E4F012175C06
:1002C400900049EEF0A3EFF090006CE0FF1213B73A
:1002D40090006EE090004BF090006FE0FF90004CB7
:1002E400F090004BE0900042F0A3EFF090004D74CA
:1002F40020F0A37450F0A37443F0A3744BF0A374E0
:1003040054F0A37420F0A37452F0A37473F0A3F018
:10031400A37449F0A37420F0900049A3E0FF1213E2
:10032400B790006EE0900058F090006FE090005994
:10033400F0A37420F0A3F0A3F0A3F0A37449F0A3F6
:100344007444F0A37420F0900046E02430900061DF
:10035400F0A3740AF0A3740DF0900047E060107BE2
:10036400017A00794B7D19120E859000D1EFF0903F
:1003740000D1E0600D7F011213EF9000D27401F000
:1003840080057F021213EF90006CE004F07F717E11
:04039400051211DA63
:03039800020099C7
:1013EF00EFFD3395E0FC4D7005C2B0C29722ED645E
:1013FF00014C7005D2B0C29722ED64024C7005C249
:10140F00B0D29722ED64034C7008D2B0A2B0B39261
:07141F009722D2B0D2972200
:1014BD00E4FFEFFD3395E0FCC3ED9421EC648094E3
:1014CD00805014EF3395E0FC74002DF58274003CD0
:0C14DD00F583E4F00F80DBE4900044F0A5
:0114E90022E0
:1014EA00E4FFEFFD3395E0FCC3ED9421EC648094B6
:1014FA00805014EF3395E0FC74002DF58274003CA3
:0C150A00F583E4F00F80DBE4900044F077
:0115160022B2
:03000000020C1DD2
:100C1D0075C7AA75C75575FD5A75C7AA75C7557598
:100C2D00FDA5787FE4F6D8FD9000007FFF7E03E4FC
:0C0C3D00F0A3DFFCDEFA758121020C84BC
:10167500D292121856D292C290121856C290D281A6
:0F16850012180AD281D291121856D2910216E190
:051341009000E5EFF053
:10134600E4A3F09000E6E0C39408748094805027EC
:10135600C2909000E5E030E704D2818002C281129B
:1013660016E19000E5E0FF25E0F0D2901216E1903C
:0713760000E6E004F080CC6A
:01137D00224D
:101223009000E674FFF0E49000E5F09000E5E0C381
:10123300940874809480502AC2901216E19000E6BC
:10124300E0FF25E0F0D290308106E04401F0800712
:101253009000E6E054FEF01216E19000E5E004F0A1
:0712630080C99000E6E0FFE6
:01126A002261
:1012B3009000E0EFF0A3EDF0D28112180AC2901271
:1012C3001856C290D291121856D291C2921216E1B8
:1012D3001216E19000E0E0547FFF1213419000E109
:1012E300E0FF121341C2901216E11216E1D292D21C
:0712F300811217A1D2912224
:101128009000E1EFF0A3EBF0A3EAF0A3E9F0D2819D
:1011380012180AC290121856C290D291121856D29A
:1011480091C2921216E11216E19000E1E04480FF8C
:101158001213411217A11212239000E2E0FBA3E040
:10116800FAA3E0F9EF12072DC2901216E11216E168
:0A117800D292D2811217A1D2912267
:100CC9009000DAEBF0A3EAF0A3E9F0A3ECF0A3EDCE
:010CD900F02A
:100CDA00D291121856D291D292121856D292C2902A
:100CEA00121856C29012180AE49000DFF0A3F0908E
:100CFA0000DDE0FEA3E0FFC39000E0E09F9000DF8C
:100D0A00E09E5054C2911216E11216E19000DAE008
:100D1A00FBA3E0FAA3E0F99000DFE0FEA3E0F5828E
:100D2A008E83120700FF121341C2901216E11216A7
:100D3A00E11216E1D2911216E11216E11216E1122F
:100D4A0016E11216E11216E19000E0E004F0709F3D
:0D0D5A009000DFE004F080971217A1D29105
:010D67002269
:100D68009000D8EBF0A3EAF0A3E9F0A3ECF0A3ED30
:010D7800F08A
:100D7900D291121856D291D292121856D292C2908A
:100D8900121856C2901217A1E49000DDF0A3F0905A
:100D990000DBE0FEA3E0FFC39000DEE09F9000DDF2
:100DA900E09E5054C2911216E11216E112122390DC
:100DB90000D8E0FBA3E0FAA3E0F99000DDE0FCA392
:100DC900E0F5828C83EF12073FC2901216E11216EA
:100DD900E11216E1D2911216E11216E11216E11290
:100DE90016E11216E11216E19000DEE004F0709FA0
:0D0DF9009000DDE004F080971217A1D29168
:010E060022C9
:0717D2007DFF7F7F0218403C
:0A176A007F61121727EF540FFF22D2
:050AC2009000DBEFF0E5
:100AC700A37464F0EF24FE601C24FE603024FC60F5
:100AD7003424E8601824E0601C2430702E9000DD78
:100AE7007401F080269000DD7402F0801E9000DD16
:100AF7007404F080169000DD7406F0800E9000DD1F
:100B07007403F080069000DD7405F09000DBE0FDD3
:100B17007F601218409000DCE0FF14F0EF60487F20
:100B2700647E0012154012176A9000DDE0B50703D6
:100B37007F01229000DBE0644070127F64FE121593
:100B4700407F6A121727EF30E3037F01229000DB13
:100B5700E0640870C07F64FE1215407F6D1217278E
:090B6700EF30E0B17F01227F00B4
:010B70002262
:05181D007F10020AC269
:051822007F02020AC272
:051827007F20020AC24F
:05182C007F04020AC266
:051831007F40020AC225
:051836007F08020AC258
:0717D900AD077F6502184017
:10126B009000DBEDF09000DAEFF0541FF0E0FFC0E0
:10127B00077F66121727EF54E0FED0E04E9000DA9E
:10128B00F0FD7F661218409000DBE0541FF0E0FF8A
:10129B00C0077F67121727EF54E0FED0E04E900097
:0812AB00DBF0FD7F6702184033
:05158E00900100EFF0E8
:101593007F66121727900100E06006EF54DFFF809B
:0C15A30004EF4420FFAD077F66021840F3
:05169400900101EFF0E0
:101699007F54121727EF5480FF900101E0547F4FC8
:0616A900FD7F5402184011
:05148F00900102EFF0E6
:101494007F66121727900102E0FD7C007008EF447C
:1014A4008054BFFF800CED64014C7006EF547F4400
:0914B40040FFAD077F66021840FD
:0717E000AD077F680218400D
:0515AF00900103EFF0C4
:1015B4007F69121727900103E06006EF54EFFF8064
:0C15C40004EF4410FFAD077F69021840DF
:0515D000900104EFF0A2
:1015D5007F69121727900104E06006EF4402FF803F
:0C15E50004EF54FDFFAD077F69021840C1
:10173C007F69121727EF54FE54FBFD7F6902184096
:10174C007F69121727EF44014404FD7F690218409A
:0717E7007D047F6C02184035
:1016F9007F6E1217279000DAEFF07D017F6C1218C8
:06170900409000DAE0FF51
:01170F0022B7
:101710007F6E1217279000D8EFF07D027F6C1218B1
:06172000409000D8E0FF3C
:0117260022A0
:1008D500E49000DCF0A3F0A3F07F661217279000E8
:1008E500DFEFF030E5047F0180027F009000DFEF4D
:1008F500F07F6D1217279000DBEFF07F6A12172744
:10090500AE079000DFE060099000DBE0F4F0EEF464
:10091500FE9000DBE0FD30E7079000DDE04420F0CD
:10092500ED30E6079000DDE04401F09000DBE030BB
:10093500E5079000DDE04401F09000DBE0FD30E4E8
:100945000C9000DDE04410F0A3E04410F0ED30E33E
:100955000C9000DDE04408F0A3E04408F09000DBD3
:10096500E030E20C9000DDE04404F0A3E04404F044
:100975009000DBE0FF30E10C9000DDE04402F0A3E5
:10098500E04402F0EF30E00C9000DDE04401F0A31C
:10099500E04401F0EE30E50E9000DCE04402F0901A
:1009A50000DEE04480F0EE30E40E9000DCE044012F
:1009B500F09000DEE04440F0EE30E30E9000DCE025
:1009C5004404F09000DEE04420F09000DCE0FD7F80
:1009D5006A1218409000DDE0FD7F6B121840900010
:0F09E500DFE060069000DEE0F4F09000DEE0FF5F
:0109F40022E0
:0516AF00900105EFF0C1
:1016B4007F69121727EF549FFF900105E04FFD7FCC
:0416C400690218405F
:0515F100900106EFF07F
:1015F6007F69121727900106E06006EF4480FF809E
:0C16060004EF547FFFAD077F690218401D
:05161200900107EFF05C
:101617007F67121727900107E06006EF4420FF80DD
:0C16270004EF54DFFFAD077F670218409E
:10145C007F481217279000D4EFF07DAA7F4812180E
:10146C00407F481217279000D5EFF09000D4E0FD94
:10147C007F481218409000D5E064AA70037F0122C7
:02148C007F00DF
:01148E00223B
:05183B007F6F0217277A
:0E175C007F70121727EF2480FFE434FFFE2277
:0717EE00AD077F6302184004
:0717F500AD077F64021840FC
:081426009000DAEEF0A3EFF0F4
:10142E007F45121727AD07ED548FFD9000DAE0C40B
:10143E00F854F0C8A3E0C4540F4854704DFD7F45D6
:0E144E001218409000DAA3E0FD7F460218401D
:0717FC00AD077F4B0218400E
:051517009000DBEFF085
:10151C007F0D1217279000DBE0600AEF44804440F7
:10152C004420FF8008EF547F54BF54DFFFAD077F8A
:04153C000D02184044
:05163300900108EFF03A
:101638007F67121727900108E06006EF4440FF809B
:0C16480004EF54BFFFAD077F670218409D
:05165400900109EFF018
:101659007F28121727900109E06006EF4410FF80E8
:0C16690004EF54EFFFAD077F280218408B
:07180300AD077F270218402A
:101182001217D2E49000DAF09000DAE0C3941474FB
:10119200809480500F7FE87E031215409000DAE0C1
:1011A20004F080E41218227F611217279000DAEF10
:1011B200F04410F054DFF0FD7F611218407F62129C
:1011C20017279000DAEFF04420F0FD7F62121840FA
:0811D200E4FF1215170208D515
:0E12FA009000DAEFF0A3EBF0A3EAF0A3E9F026
:10130800E49000DFF09000DEE0FFA3E0FEC39F5012
:10131800259000DAE0FFEE2FFFA3E0FBA3E0FAA39D
:10132800E0F98E82758300120700FD1218409000C4
:08133800DFE004F080CF7F012B
:01134000228A
:06181100121855021675C5
:101727009000E074FFF07B017A0079E012112890B5
:0417370000E0E0FFEF
:01173B00228B
:031840000212B3DE
:03184300020D682B
:03184600020CC9C8
:1016E1009000E7E4F0A37404F09000E774FFF5F0D4
:0716F10012077345F070F2CF
:0116F80022CF
:10154000EF25E0FFEFF4FFEF540FF58AEF54F0FFC3
:10155000E4C4F854F0C8EFC4540F48F58CD28C3072
:071560008DFDC28CC28D223B
:011855002270
:091774003080037F01227F002276
:09177D003080037F01227F00226D
:091786003095037F01227F00224F
:09178F003083037F01227F002258
:09179800EF6003D28222C282221A
:01185600226F
:07180A0053B1FD43B20222BD
:0917A10053B1FD53B2FDD28122C7
:03184900D2832225
:03184C00C2832232
:040A4B0041010A005B
:03184F00020E077F
:100F02009000D4EBF0A3EAF0A3E9F0121786EF60A9
:010F1200627C
:100F13001218227B017A0079D77D017C00121843D5
:100F23009000D7E0D3941F748094804003741FF023
:100F33009000D7E0D394007480948040267B017A9C
:100F430001790A7D017C001218439000D7E014F068
:100F53009000D4E0FBA3E0FAA3E0F9A3E0FD7C005A
:100F63001218431217101208D51218369000D7E042
:020F7300FF225B
:030F75007F0022D8
:0E0E85009000D4EBF0A3EAF0A3E9F0A3EDF0A7
:100E93001218221208D59000D7E02401FFE433FE94
:100EA3001214261216F912174C9000D4E0FBA3E09B
:100EB300FAA3E0F9A3E0FD7C001218461218319062
:100EC30000D87403F0A374E8F07F6A121727EF3099
:100ED300E30C1208D512173C1218367F012290003A
:100EE300D9E024FFF09000D8E034FFF0E07002A3D3
:0E0EF300E070D6120E0712173C1218367F0060
:010F010022CD
:031852000217FC7E
:0618170090010AE0FF222F
:10000300EF601712182212145CEF7002FF2212081D
:10001300D51217101218367F012212181D7F0022E5
:100A4F004C00BC0066EC1CF0801408910202D04CE4
:100A5F00007BAEE0350000F410E242200081480038
:100A6F00C842CFA78C42C44E1C5800873218109929
:100A7F00C19B060A9F392929C0512A530000B4008F
:100A8F00000100005D009F120800AA040000000092
:100A9F0000D42DAA051F020000000041000060FFD6
:100AAF0002001F104B00705093010042B000420C27
:020ABF003F7F77
:100E07001218111211827B017A0079BC9000DE74EE
:100E17000CF0E4FF1212FA7B017A00797B9000DE76
:100E2700740CF0FF1212FA7B017A0079C89000DE89
:100E37007408F07F181212FA7B017A007987900004
:100E4700DE7418F07F201212FA7B017A00799F90E6
:100E570000DE741DF07F381212FA7B017A00797078
:100E67009000DE740BF07F551212FA7F09121727D4
:0E0E7700EF54F84402FD7F091218400216C81D
:1016C8007F291217D97D197F0412126B7F391217DF
:0916D800E0E4FF12151702181DD1
:10137E0053B1BF53B2BF53B17F53B27F7598504331
:10138E008920438780438E1053C4DFAB07AA06A97A
:10139E0005A8047F407E427D0F7C001207C5EF0436
:0913AE00F404F58DD28ED29922CF
:100F78009000D412086A53B1BF53B2BF53B17F5324
:100F8800B27F75985043878053C4F843C4209000BB
:100F9800D4E0F8A3E0F9A3E0FAA3E0FB7F407E42A7
:100FA8007D0F7C001207C5C374FF9FFF74FF9EFE70
:100FB800E49DFDE49CFC78081208578FC69000D485
:100FC800E0F8A3E0F9A3E0FAA3E0FB7F407E427DCE
:100FD8000F7C001207C5C374FF9FFF8FC543C40869
:030FE800D2992279
:0717B2003098FDAF99C298C9
:0117B900220D
:0817BA00C2998F993099FD22BC
:100FEB009000FC12086A53B1FB53B2FB53B3BF53CF
:100FFB00B4BF75F85075C40853C4DF9000FCE0F81B
:10100B00A3E0F9A3E0FAA3E0FB7F407E427D0F7CD7
:10101B00001207C5C374FF9FFF74FF9EFEE49DFD86
:10102B00E49CFC78081208578FC69000FCE0F8A3EC
:10103B00E0F9A3E0FAA3E0FB7F407E427D0F7C004A
:0E104B001207C5C374FF9FFF8FC543C4082260
:0717C20030F8FDAF9AC2F8F8
:0117C90022FD
:0817CA00C2F98F9A30F9FD22EB
:100C4900020026E493A3F8E493A34003F68001F29B
:100C590008DFF48029E493A3F85407240CC8C333AC
:100C6900C4540F4420C8834004F456800146F6DF7B
:100C7900E4800B01020408102040809009F5E47E0D
:100C8900019360BCA3FF543F30E509541FFEE49370
:100C9900A360010ECF54C025E060A840B8E493A337
:100CA900FAE493A3F8E493A3C8C582C8CAC583CA62
:100CB900F0A3C8C582C8CAC583CADFE9DEE780BE1A
:010AC1000034
:10070000BB010CE58229F582E5833AF583E02250AE
:1007100006E92582F8E622BBFE06E92582F8E222F8
:0D072000E58229F582E5833AF583E4932212
:10072D00BB010689828A83F0225002F722BBFE01AB
:02073D00F322A5
:10073F00F8BB010DE58229F582E5833AF583E8F0F0
:10074F00225006E92582C8F622BBFE05E92582C89C
:02075F00F22284
:10076100EF8DF0A4A8F0CF8CF0A428CE8DF0A42EAC
:02077100FE2266
:10077300A3F8E0C5F025F0F0E58215827002158339
:06078300E0C838F0E82296
:1007890075F008758200EF2FFFEE33FECD33CDCC27
:1007990033CCC58233C5829BED9AEC99E5829840AA
:1007A9000CF582EE9BFEED9AFDEC99FC0FD5F0D687
:1007B900E4CEFBE4CDFAE4CCF9A88222B800C1B9B1
:1007C9000059BA002DEC8BF084CFCECDFCE5F0CBEF
:1007D900F97818EF2FFFEE33FEED33FDEC33FCEB28
:1007E90033FB10D703994004EB99FB0FD8E5E4F9E3
:1007F900FA227818EF2FFFEE33FEED33FDEC33FCD0
:10080900C933C910D7059BE99A4007EC9BFCE99AC3
:10081900F90FD8E0E4C9FAE4CCFB2275F010EF2F08
:10082900FFEE33FEED33FDCC33CCC833C810D70708
:100839009BEC9AE899400AED9BFDEC9AFCE899F843
:0E0849000FD5F0DAE4CDFBE4CCFAE4C8F922D6
:10085700E8600FECC313FCED13FDEE13FEEF13FF7F
:03086700D8F122A3
:0C086A00ECF0A3EDF0A3EEF0A3EFF02201
:10039B00E50824D7F582E43400F583E005082290C4
:1003AB0000D43007039000D7E475F00112088F02D8
:1003BB0008762000E97F2ED2008018EF540F24908E
:1003CB00D43440D4FF30040BEF24BFB41A005003D5
:1003DB002461FFE50960021509050CE50C700205A7
:1003EB000B30070E9000D4E475F00112088FEF026A
:1003FB00072D0215677403D2078003E4C207F508C3
:10040B009000D41208A6E4F509F50BF50CE509608C
:10041B00077F201203DE80F5750AFFC201C200C2FE
:10042B0002C203C205C206C2081203AAFF700D3036
:10043B0007057F001203EFAF0CAE0B22B4255FC292
:10044B00D5C2041203AAFF24D0B40A00501A75F0C7
:10045B000A780930D50508B6FF0106C6A426F62092
:10046B00D5047002D20380D924CFB41A00EF500404
:10047B00C2E5D2040205F0D20180C6D20080C0D200
:10048B000280BCD2D580BAD20580B47F201203DEA5
:10049B002002077401B5090040F112039BFF120300
:1004AB00DE020418D208D206809512039BFB1203BE
:1004BB009BFA12039BF94A4B700679C17A067BFFB4
:1004CB0020022EE509602A7E008E827583001207BA
:1004DB000060060EEE650A70F0C2D5EBC0E0EAC014
:1004EB00E0E9C0E0EE120637D0E0F9D0E0FAD0E058
:1004FB00FB120876FF60AAEBC0E0EAC0E0E9C0E0BF
:10050B001203DED0E02401F9D0E03400FAD0E0FB96
:10051B00E50A0460DCD50AD980877BFF7A0679333C
:10052B00D202809C791080027908C206C20880082A
:10053B00D2D5790A8004790AC2D5E50A047002F58E
:10054B000AE4FAFDFEFF12039BFC7B082001131249
:10055B00039BFD7B1030000A12039BFE12039BFFD3
:10056B007B20EC3382D592D55013C3E43000069F29
:10057B00FFE49EFEE42001039DFDE49CFCE4CBF82C
:10058B00C201EC700CCFCECDCCE824F8F870F38020
:10059B0017C3EF33FFEE33FEED33FDEC33FCEB33E0
:1005AB00FB994002FB0FD8E9EB300105F8D0E0C412
:1005BB0048B201C0E00AEC4D4E4F78207B0070C270
:1005CB00EAB50A0040BCC0E0120639D0F0D0E020FA
:1005DB000104C4C0E0C4B201C0F01203C7D0F0D50F
:1005EB00F0EB0204181208AF04B553052F5804861C
:1005FB004C04824205334F053B44053B49049B4366
:08060B000541550525460525B2
:100613004505254706E150048A2D048E2E04B12B8F
:1006230004922304AF2006CA2A044A48000004A9FE
:100633003F3F3F00790AA2D5200314300509B910C2
:10064300020404B9080104A2D520060250010420C3
:1006530002689202B509005034C0E07F20300319CC
:100663007F30A20272067205500F120690C202C2B8
:1006730006C205C2087F30800F300503E9C0E012CF
:1006830003DE300503D0E0F9D0E0B509CC3005171F
:100693007F30B9100C1203DE7F583004077F788057
:1006A30003B908031203DE3002057F2D0203DE7F48
:1006B300202008F87F2B2006F322920280CF286E99
:1006C300756C6C2900D20112039B3001F8C20178CA
:1006D3000930D50108F602044A2D50434958120344
:1006E3009B2403B405004001E49006DC931203CF7E
:0D06F300743A1203CFD20375090402052FDB
:10087600BB010689828A83E0225002E722BBFE0280
:09088600E32289828A83E49322B3
:10088F00F8E0FBA3A3E0F925F0F0E58215827002F2
:07089F001583E0FA38F02296
:0908A600EBF0A3EAF0A3E9F02253
:1008AF00D083D082F8E4937012740193700DA3A3D8
:1008BF0093F8740193F5828883E4737402936860EC
:0608CF00EFA3A3A380DFEC
:10156700EFB40A07740D121572740A309811A8990E
:10157700B8130CC2983098FDA899C298B811F630E4
:0715870099FDC299F59922BC
:00000001FF
